:020000020000FC
:1000000012C196C0189518951895189518951895B9
:10001000189518951E33212121212121331E040C0E
:10002000140404040404041F1E332103060C1830B6
:10003000203F1E3301030E030101331E03070D1978
:1000400031213F0101013F20203E03010101331E08
:100050001E3320203E332121331E3F21030206049C
:100060000C0808081E3321331E332121331E1E3392
:100070002121331F0101031E0000000000000000C9
:100080000000030342A5A566181866A5A542081C32
:100090003663417F7F4141413F7F40407C7C40400F
:1000A0007F3F40404040404040407F3F7E7F414155
:1000B0007F7E4040404041414141632236141C084C
:1000C00004B115B1369A800E911E7A95E1F470E470
:1000D000969487940AEB33248016900420F033948E
:1000E000801A9008F9CF0695801608F0339400E046
:1000F000300E532C541608F4452D0EE1501618F40A
:100100005F3F09F45EEF0895601471F05F3F09F0FE
:100110005A957AD055FF06C0E3E6252D5ED0E9E674
:10012000242F5BD06624762E56C08827992753C08B
:100130002FB6B29BFACF0196BB2761E03AE02CE3E1
:10014000ACE6C8E2D0E08C179D0760F32A968C17C6
:100150009D0770F061E036E02CE8A0E6C0EFD0E04B
:100160008C179D07F8F22A968C179D0708F0CCCFC4
:100170002A95F1F7C6E7DD27FF27432EED91E60D1F
:10018000249129934A94D1F7A6E744242D9127FB83
:1001900044F848BA26FB44F848BA25FB44F848BA64
:1001A00024FB44F848BA23FB44F848BA22FB44F83D
:1001B00048BA21FB44F848BA20FB44F848BA2D91CC
:1001C00008BA3A9519F0323041F7F3CFC09A7A94D1
:1001D00011F46394762E2FBE189534E60FD0401498
:1001E00019F01BD0319741923AE008D016D04192D5
:1001F0003AE73193422E11D04192089544242317B7
:10020000E0F34394231BFBCFFF27E0E624E8219390
:1002100028E72193EC36E8F30895B4E1B65F4A94F9
:10022000E9F74B2E08950FE90DBF00241124139414
:1002300066245EEF712C00E806BD06BCBC9AC09A2D
:1002400003E205BF00E40BBF03E407B907EC06B9FE
:10025000A39A0FD015D03699FECF32DF5A95D9F731
:100260004FEF789488958E319005E0F7369B28DF24
:10027000F9CF31B608E1339431BE0A95E1F708951C
:10028000E4E9F2E0CCE6DD270AE0159119930A953E
:0E029000E1F70895AC8EB698A2787878787869
:00000001FF
