:020000020000FC
:1000000072C118951895189518953FC118951895AF
:10001000B39418957F7F4141414141417F7F08085A
:1000200008080808080808087F7F01017F7F404012
:100030007F7F7F7F01017F7F01017F7F41414141C0
:100040007F7F010101017F7F40407F7F01017F7F32
:100050007F7F40407F7F41417F7F7F7F01010101A2
:10006000010101017F7F41417F7F41417F7F7F7F90
:1000700041417F7F01017F7F08083E3E63633E3E32
:10008000080800000000000000000000030300005A
:100090000003030042A5A566181866A5A542081C22
:1000A0003663417F7F4141413F7F40407C7C4040FF
:1000B0007F3F40404040404040407F3F7E7F414145
:1000C0007F7E4040404041414141632236141C083C
:1000D00004B115B1369A800E911E7A95F1F470E450
:1000E000969487940AEB33248016900420F033947E
:1000F000801A9008F9CF0695801608F0339400E036
:10010000300E532C88249924541608F4452D0EE102
:10011000501618F45F3F09F45EEF0895FF27E0E6FC
:1001200024E9219322E82193EC36E8F308955F3F18
:1001300009F05A95F3DF55FF5EC0E3E6252D5CD04C
:10014000E9E6242F59D0B11068D055C06014E9F306
:100150003896662423E0E039F207B8F3E8CF019639
:10016000BB27A5913591A590319625916591C591B3
:10017000D59138978C179D0740F32A9661112A96DE
:100180008C179D0718F72A95F1F7EF93FF93CCE7AB
:10019000DD27FF27432EED91E60D249129934A9404
:1001A000D1F7FF91EF91ACE744242D9127FB44F860
:1001B00048BA26FB44F848BA25FB44F848BA24FB61
:1001C00044F848BA23FB44F848BA22FB44F848BA3A
:1001D00021FB44F848BA20FB44F848BA2D9108BAEC
:1001E0003A9519F03A1529F7F3CF701409F4762EE1
:1001F0007A9409F46394089534E623D0401419F0F6
:1002000026D0319741923AE01CD021D0419234E877
:100210003193422E1CD041920895ECE62D2D3AE008
:1002200010D015D04192422E12D041923AE831932B
:100230002C2D3AE006D00BD04192422E08D04192AC
:10024000089544242317E0F34394231BFBCFB4E128
:10025000B65F4A94E9F74B2E089516E4A89501B5C8
:10026000086101BD11BDCC24DD24BB240895B01468
:1002700041F00C2D1D2D03950C3321F0C02ED12EF5
:10028000BB24089513950027F9CF2FB6E02C38B77B
:1002900034703011E12C21E028BD02BE24E028BFDB
:1002A000E01419F05CDF2FBE189588279927E8E63F
:1002B000F3E0F9CF10E4D2DFF89405E003BF21E0CA
:1002C00028BD02BEA89501B50078E9F712B733241E
:1002D000110F331C002715503008039515303004DA
:1002E000D0F7789408950FE90DBF002411241394DA
:1002F000EE2466245EEF702C00E806BD06BCBC9AB6
:100300000BE008B903E407B907EC06B90BE004BB3E
:100310001AD020D008E7009371003699FECFD8DEBE
:100320005A95D9F74FEF02E00FBD02E003BFC2DFDD
:1003300006BF93DF7894889584319005E0F7369B6B
:10034000C7DE95DFF8CF31B608E1339431BE0A95A8
:10035000E1F70895E0E9F3E0C2E7DD270AE015914F
:1003600019930A95E1F70895720500003C012800F1
:100370006C0503003E0137007101000067019B001E
:10038000600602008C02F000660602008C010E017D
:06039000BC9EC6A8B2826B
:00000001FF
