:020000020000FC
:10000000C4C17FC01895189518951895189518951E
:10001000712D18957F7F4141414141417F7F080803
:1000200008080808080808087F7F01017F7F404012
:100030007F7F7F7F01017F7F01017F7F41414141C0
:100040007F7F010101017F7F40407F7F01017F7F32
:100050007F7F40407F7F41417F7F7F7F01010101A2
:10006000010101017F7F41417F7F41417F7F7F7F90
:1000700041417F7F01017F7F000000000000000000
:100080000000030342A5A566181866A5A54204B1A1
:1000900015B1369A800E911E7A95F1F470E496941B
:1000A00087940AEB33248016900420F03394801A4E
:1000B0009008F9CF0695801608F0339400917500EA
:1000C000300E532C541608F4452D0091760050162E
:1000D00018F45F3F09F45EEF0895601471F05F3F1C
:1000E00009F05A957AD055FF06C0E3E6252D5ED07B
:1000F000E9E6242F5BD06624762E56C08827992700
:1001000053C02FB6B29BFACF62E0019620917400E3
:10011000A0E6BB27C0917200D09173008C179D0799
:1001200050F364968C179D0758F061E02A968C175F
:100130009D0708F32A968C179D0778F6A6E62450AB
:100140002A95F1F7CCE6DD27FF2736E0ED91E60DA5
:10015000249129933A95D1F7ACE636E044242D91C9
:1001600027FB44F848BA26FB44F848BA25FB44F874
:1001700048BA24FB44F848BA23FB44F848BA22FBA7
:1001800044F848BA21FB44F848BA20FB44F848BA7E
:100190002D9108BA3A9519F0323029F7F3CFC09A69
:1001A0007A9411F46394762E2FBE189534E60FD00E
:1001B000401419F01BD0319741923AE008D016D084
:1001C00041923AE73193422E11D04192089544244E
:1001D0002317E0F34394231BFBCFFF27E0E624E83B
:1001E000219328E72193EC36E8F30895B4E1B65F54
:1001F0004A94E9F74B2E08950F937DD019E00BD068
:100200000AD009D08894B09908941A9511F03794BF
:10021000F7CF0F9108950FE40A95F1F70895F89438
:10022000E8D069D03014E9F766D03014E9F304E07F
:10023000ECE6FF27E1DF31920A95E1F7ECE6019168
:10024000083571F00335C1F00C34F9F0033419F1BD
:10025000063529F10634A1F0043529F0073599F166
:10026000BED078940895BBD080D07727789470154D
:10027000F1F3F89483D0D3CF1FD089F660D0F0CFBC
:100280001BD069F653D073D0FFCF21D0809272007B
:1002900090927300E8CF1BD080927400E4CF312C91
:1002A00000810D3209F0332400E3008310D03010B8
:1002B000819480927500D4CF13E03190301611F400
:1002C0001A95D9F7089503D080927600C9CF882473
:1002D0009924019112E308D0019115E005D0008125
:1002E0000F70800E901C08950F70000F800E901CF0
:1002F0001A95E1F70895312C00271127B09B05C00E
:100300001A95E1F70A95D1F733240895F0008C008F
:10031000690009D01EBBE09A0DB308950CBA1EBB4C
:100320000DBBE29AE19AE199FECF0895ECE0F3E08B
:1003300015E00591F3DF13951B30D9F70895E2E737
:10034000FF2715E00191EADF1395E837D8F3089508
:10035000E2E7FF2715E0DDDF01931395E837D8F3D7
:100360000F3F11F4E3DFF4CF089510E601C018E069
:10037000A89501B5086101BD11BD0895A89504BEF9
:1003800001B5086101BD01BC08950FE90DBF00244E
:100390001124139466245EEF712CA1B600E806BD0B
:1003A00006BCECDFBC9AC09AD3DF03E205BF00E4D1
:1003B0000BBF03E407B907EC06B9A39A10D036992E
:1003C000FECF65DE5A95D9F74FEF7894B09B27DFC3
:1003D00088958E319005D0F7369B59DEF7CF31B630
:1003E0003A1431F411E008E1310E31BE0A95E1F71B
:0C03F000089531B63A14E1F31FEFF5CF89
:00000001FF
