:020000020000FC
:10000000C2C181C01895189518951895189518951E
:10001000B8C118951C36636363636363361C040CB4
:100020001C2C0C0C0C0C0C3F3E776303070E1C3889
:10003000707F3E7763060C060363773E02060E1E52
:1000400036667F0606067F60607E07030363773EA1
:100050003E7360607E776363773E7F630303060CC5
:10006000181818183E7763773E776363773E3E77BC
:100070006373773F0303673C00000000000000004B
:100080000303000000000000000000000000FF81EA
:1000900081996600000004B115B1369A700E811E78
:1000A000639400E46016D8F06624869477940AEB93
:1000B00033247016800420F03394701A8008F9CF2E
:1000C0000695701608F0339400916F00300E432DA2
:1000D00000917000401718F46F3F09F46EEF089517
:1000E000B4E1B65F4A94E9F74B2E0895A0E6BB272A
:1000F000C6E6DD27FF2736E0ED91E50D2491299333
:100100003A95D1F708952FB6B29B3CC00196A091C5
:100110006C00B0916D008A179B0790F154968A1776
:100120009B0770F5E3DF20916E002A95F1F7A6E6B4
:10013000BB2736E044242D9127FB44F848BA26FB20
:1001400044F848BA25FB44F848BA24FB44F848BAB6
:1001500023FB44F848BA22FB44F848BA21FB44F890
:1001600048BA20FB44F848BA2D9108BA3A9519F0DC
:10017000323029F7F3CFC09A5A9511F4539452E0D4
:100180002FBE189555248827992752E06F3F09F014
:100190006A95FF27E0E62CE8219322E8219321933A
:1001A00065FF18C0242F34E60FD0401419F098DFF3
:1001B000319741923AE008D093DF419238E731938A
:1001C000422E8EDF4082DCCF44242317C8F24394B2
:1001D000231BFBCF219321932193D2CF0F9385D063
:1001E00019E00BD00AD009D08894B09908941A95D8
:1001F00011F03794F7CF0F9108950FE40A95F1F7B6
:100200000895F894F0D068D070D03014E9F304E089
:10021000E6E6FF27E3DF31920A95E1F7E6E6FF27FE
:100220000191083571F00335C1F00C34F9F0033455
:1002300019F1063529F10634A1F0043529F0073506
:1002400099F1C7D078940895C4D089D06624789461
:100250006014F1F3F8948CD0D4CF1FD091F669D00C
:10026000F0CF1BD071F65CD07CD0FFCF21D0709244
:100270006C0080926D00E8CF1BD070926E00E4CFCE
:10028000312C00810D3209F0332400E3008310D0BB
:100290003010719470926F00D4CF13E0319030160B
:1002A00011F41A95D9F7089503D070927000C9CF50
:1002B00077248824019112E308D0019115E005D03C
:1002C00000810F70700E801C08950F70000F700E6B
:1002D000801C1A95E1F7089500271127B09BFCCFE9
:1002E0001A95E1F70A95D1F70895312C00271127C7
:1002F000B09B05C01A95E1F70A95D1F7332408950C
:10030000F0006400280009D01EBBE09A0DB30895E8
:100310000CBA1EBB0DBBE29AE19AE199FECF08959B
:10032000E0E0F3E015E00591F3DF13951B30D9F71A
:100330000895ECE6FF2715E00191EADF1395E23717
:10034000D8F30895ECE6FF2715E0DDDF0193139560
:10035000E237D8F30F3F11F4E3DFF4CF089510E64E
:1003600001C018E0A89501B5086101BD11BD08954F
:10037000A89504B7077F04BF01B5086101BD01BCA2
:100380000895612C18950FE90DBF002411241394D2
:10039000662455246FEF52E091B600E806BD06BC16
:1003A000E7DFBC9AC09ACEDF03E205BF00E40BBFD3
:1003B00003E407B907EC06B908E004BB0AD0789457
:1003C000B09B1FDF88958E319005D0F7369B63DE9A
:1003D000F7CF31B6391431F411E008E1310E31BEF6
:1003E0000A95E1F7089531B63914E1F31FEFF5CF1F
:00000001FF
