:020000020000FC
:10000000B9C174C018951895189518951895189534
:10001000712D18951E33212121212121331E040C1D
:10002000140404040404041F1E332103060C1830B6
:10003000203F1E3301030E030101331E03070D1978
:1000400031213F0101013F20203E03010101331E08
:100050001E3320203E332121331E3F21030206049C
:100060000C0808081E3321331E332121331E1E3392
:100070002121331F0101031E0000000000000000C9
:100080000000030342A5A566181866A5A54204B1A1
:1000900015B1369A800E911E7A95F1F470E496941B
:1000A00087940AEB33248016900420F03394801A4E
:1000B0009008F9CF0695801608F0339400917500EA
:1000C000300E532C541608F4452D0091760050162E
:1000D00018F45F3F09F45EEF0895B4E1B65F4A9407
:1000E000E9F74B2E08956624762E49C02FB6B29BB1
:1000F00048C061E0019620917400A0E6BB27C09142
:100100007200D09173008C179D0768F32A968C17A4
:100110009D0708F0E8CF2A95F1F7CCE6DD27FF2709
:1001200036E0ED91E60D249129933A95D1F7ACE6AE
:1001300036E044242D9127FB44F848BA26FB44F8C6
:1001400048BA25FB44F848BA24FB44F848BA23FBD4
:1001500044F848BA22FB44F848BA21FB44F848BAAC
:1001600020FB44F848BA2D9108BA3A9519F032307C
:1001700041F7F3CFC09A7A9411F46394762E2FBE90
:100180001895882799275F3F09F05A9521D055FF88
:10019000F6CF8395E3E6252D04D0E9E6242F01D0A0
:1001A000EECF34E60FD0401419F097DF319741922B
:1001B0003AE008D092DF41923AE73193422E8DDF48
:1001C0004192089544242317E0F34394231BFBCF6B
:1001D000FF27E0E624E8219328E72193EC36E8F3B3
:1001E00008950F937DD019E00BD00AD009D08894E0
:1001F000B09908941A9511F03794F7CF0F9108959C
:100200000FE40A95F1F70895F894E8D069D0301416
:10021000E9F766D03014E9F304E0ECE6FF27E1DF0C
:1002200031920A95E1F7ECE60191083571F003355A
:10023000C1F00C34F9F0033419F1063529F1063414
:10024000A1F0043529F0073599F1BED078940895CE
:10025000BBD080D0772778947015F1F3F89483D0D1
:10026000D3CF1FD089F660D0F0CF1BD069F653D022
:1002700073D0FFCF21D08092720090927300E8CFAC
:100280001BD080927400E4CF312C00810D3209F034
:10029000332400E3008310D03010819480927500E5
:1002A000D4CF13E03190301611F41A95D9F7089590
:1002B00003D080927600C9CF88249924019112E35B
:1002C00008D0019115E005D000810F70800E901CC0
:1002D00008950F70000F800E901C1A95E1F7089595
:1002E000312C00271127B09B05C01A95E1F70A951C
:1002F000D1F733240895F0008C00690009D01EBBAB
:10030000E09A0DB308950CBA1EBB0DBBE29AE19AB8
:10031000E199FECF0895E6EFF2E015E00591F3DFF5
:1003200013951B30D9F70895E2E7FF2715E00191F7
:10033000EADF1395E837D8F30895E2E7FF2715E0E1
:10034000DDDF01931395E837D8F30F3F11F4E3DFB6
:10035000F4CF089510E601C018E0A89501B5086132
:1003600001BD11BD0895A89504BE01B5086101BD88
:1003700001BC08950FE90DBF0024112413946624D5
:100380005EEF712CA1B600E806BD06BCECDFBC9A9E
:10039000C09AD3DF03E205BF00E40BBF03E407B953
:1003A00007EC06B9A39A10D03699FECF70DE5A95A5
:1003B000D9F74FEF7894B09B27DF88958E31900561
:1003C000D0F7369B64DEF7CF31B63A1431F411E042
:1003D00008E1310E31BE0A95E1F7089531B63A14BD
:0603E000E1F31FEFF5CF71
:00000001FF
