:020000020000FC
:1000000086C199C018951895189518951895189542
:100010007AC118952070D88888888888D870200080
:100020002060E0202020202020F8F80070D8080868
:1000300008183060C0F8F8002060E0202020202060
:1000400020F8F8002060E0202020202020F8F80090
:100050002060E0202020202020F8F8003070C080B0
:10006000F0F8888888F87000F8F8880810101020D8
:10007000202020002060E0202020202020F8F80010
:100080002060E0202020202020F8F8000000000060
:100090000000000060606000000000000000000040
:1000A0000000000004B115B1369A700E811E6394F1
:1000B00000E4601688F06624869477940AEB332473
:1000C0007016800420F03394701A8008F9CF0695DA
:1000D000701608F03394432D0895FF27E0E628E9D1
:1000E0002083242F34E60ED0401411F011D0419219
:1000F0003AE008D00DD041923CE83193422E08D02E
:100100004082089544242317E0F34394231BFBCF3C
:10011000B4E1B45F4A94E9F74B2E0895A0E6BB27FB
:10012000C4E6DD27FF2734E0ED91E50D2491299306
:100130003A95D1F708952FB6B29B31C00196A091A0
:100140006800B09169008A179B0738F11C968A17DE
:100150009B0718F5E3DF20916A002A95F1F7E4E6A2
:10016000FF2734E04424219127FB44F848BA26FBBA
:1001700044F848BA25FB44F848BA24FB44F848BA86
:1001800023FB44F848BAE89444F848BA3A9559F73A
:10019000C09A5A9511F4539451E02FBE18955524E6
:1001A0008827992751E099DFF8CF0F9370D019E095
:1001B0000BD00AD009D08894B09908941A9511F000
:1001C0003794F7CF0F9108950FE40A95F1F708954A
:1001D000F89454D05CD03014E9F304E0E4E6FF274F
:1001E000E4DF31920A95E1F7E4E6FF270191083553
:1001F00051F0033551F00C3479F00334A9F0063591
:10020000C9F00235E9F07894089513E001910335BF
:10021000F9F61A95D9F7F7CF1CD070926800809242
:1002200069005FD03FD0D4CF14D070926A0059D00B
:1002300039D0CECF0ED070926B0053D033D0C8CF10
:1002400013E00191023521F61A95D9F741D04BD030
:10025000FFCF7724882401910F7012E309D0019118
:100260000F7015E005D000810F70700E801C08958E
:10027000000F700E801C1A95E1F7089500271127D2
:10028000B09BFCCF1A95E1F70A95D1F70895312C70
:1002900000271127B09B05C01A95E1F70A95D1F701
:1002A00033240895662478946014F1F3F894089543
:1002B000C8001E00E199FECF1EBBE09A0DB3089561
:1002C000E199FECF0CBA1EBB0DBBE29AE19A0895EC
:1002D000E0EBF2E015E00591F3DF13951930D9F763
:1002E000089510E601C018E0A89501B5086101BDA8
:1002F00011BD0895A89504B7077F04BF01B5086133
:1003000001BD01BC08952FB6612C2FBE18950FE9D1
:100310000DBF0024112413946624552451E000E8F5
:1003200006BD06BCE7DFBC9AC09A08EC10E000935B
:100330006800109369000EE100936A0003E005BFB6
:1003400000E40BBF03E407B906EC06B94EE7789466
:06035000B09B3EDFFDCF73
:00000001FF
