:020000020000FC
:1000000059C0B5C018951895189518951895189554
:10001000189518952070D88888888888D87020000E
:100020002060E0202020202020F8F8002060E02040
:100030002020202020F8F8002060E0202020202030
:1000400020F8F8002060E0202020202020F8F80090
:100050002060E0202020202020F8F8002060E02010
:100060002020202020F8F8002060E0202020202000
:1000700020F8F8002060E0202020202020F8F80060
:100080002060E0202020202020F8F8000000000060
:1000900000000000808080000000000000000000E0
:1000A0000000000009BE089502BE24E028BF24E03D
:1000B00029BF089500E806BD06BC0FE90DBF002466
:1000C000112413940EE011E0009364001093650076
:1000D00001E005BF01E00BBF01E005BB02E00FBD81
:1000E00001E003BF03E706BF789444270091600056
:1000F000102FF0E0E4E1110F110F110F100F100F8E
:10010000100F100F140FE10FF01D0591112700FBC8
:1001100014F918BB01FB14F918BB02FB14F918BB46
:1001200003FB14F918BB04FB14F918BB05FB14F905
:1001300018BB0000000008BA08950BE000936000AF
:10014000052F14E60DD0301411F0309260001AE043
:1001500007D030926100109362000093630008950D
:100160003324011718F03394011BFBCF08952FB6E9
:100170009BDFB29B13C0610D401C30916400509016
:1001800065006317450438F02CE02395320F501CAE
:0E0190006317450408F086DF2FBE1895FCCFDC
:00000001FF
