:020000020000FC
:1000000051C1A5C01895189518951895BCC018959C
:10001000189518952070D88888888888D87020000E
:100020002060E0202020202020F8F800E060E02080
:100030002020202020F8F8002060E0202020202030
:1000400020F8F8002060E0202020202020F8F80090
:100050002060E0202020202020F8F8000408102054
:1000600040800408102040800408E0202020202048
:1000700020F8F8002060E0202020202020F8F80060
:100080002060E0202020202020F8F8000000000060
:1000900000000000C0C0C000000000000000000020
:1000A0000000000002BE24E028BF24E029BF08951C
:1000B00004B115B1369A800E911E739400E4701647
:1000C00088F07724969487940AEB44248016900451
:1000D00020F04394801A9008F9CF0695801608F016
:1000E0004394542D0895FF27E0E628E92083252F27
:1000F00034E610D0301419F0532C12D051923AE05B
:1001000009D0532C0DD051923CE83193522E08D097
:100110005082089533242317E0F33394231BFBCF3D
:100120002F933F9334E12CE0320F5A94E9F7532E8A
:100130003F912F910895A0E6BB27C4E6DD2734E068
:10014000ED91E40F249129933A95D1F708952FB6B4
:10015000B29B14C0A7DF610D601C30916800509005
:1001600069006317650438F02CE02395320F501CAA
:100170006317650408F009BE2FBE1895442766274B
:100180006624B1DFF8CF2FB609BED5DF20916A0013
:100190002A95F1F7E4E634E0512C219127FB54F83D
:1001A00058BA26FB54F858BA25FB54F858BA24FB21
:1001B00054F858BA23FB54F858BA22FB54F858BAEA
:1001C0000000000018BA3A9541F743952FBE1895E4
:1001D0000F935DD019E00BD00AD009D08894B09964
:1001E00008941A9511F04794F7CF0F9108950FE4F2
:1001F0000A95F1F70895F89441D049D04014E9F3F5
:1002000004E0E4E6E5DF41920A95E1F7E4E60191D6
:10021000083541F0033541F00C3469F0033489F0BE
:10022000063599F07894089513E00191033519F794
:100230001A95D9F7F7CF0DD0809268009092690097
:10024000DACF07D080926A00D6CF03D080926B00BD
:10025000D2CF8824992401910F7012E309D0019123
:100260000F7015E005D000810F70800E901C08956E
:10027000000F800E901C1A95E1F7089500271127B2
:10028000B09BFCCF1A95E1F70A95D1F70895412C60
:1002900000271127B09B05C01A95E1F70A95D1F701
:1002A0004424089500E806BD06BC0FE90DBF0024F4
:1002B000112413947724BC9AC09A02EC11E00093A5
:1002C00068001093690004E100936A0001E005BF33
:1002D00000E40BBF02E00FBD01E003BF00E606BF74
:1002E00001E007B901E006B908E004BB5EE77894D5
:0602F000B09B81DFFDCF91
:00000001FF
