:020000020000FC
:100000005DC199C01895189518951895189518956B
:10001000189518952070D88888888888D87020000E
:100020002060E0202020202020F8F8002070D80850
:1000300008183060C0F8F8002060E0202020202060
:1000400020F8F8002060E0202020202020F8F80090
:100050002060E0202020202020F8F8003070C080B0
:10006000F0F88888F8702000F8F888081010102040
:10007000202020002060E0202020202020F8F80010
:100080002060E0202020202020F8F8000000000060
:1000900000000000C0C0C000000000000000000020
:1000A0000000000004B115B1369A700E811E6394F1
:1000B00000E4601688F06624869477940AEB332473
:1000C0007016800420F03394701A8008F9CF0695DA
:1000D000701608F03394432D0895FF27E0E628E9D1
:1000E0002083242F34E60ED0401411F011D0419219
:1000F0003AE008D00DD041923CE83193422E08D02E
:100100004082089544242317E0F34394231BFBCF3C
:10011000B4E1B45F4A94E9F74B2E0895A0E6BB27FB
:10012000C4E6DD27FF2734E0ED91E50D2491299306
:100130003A95D1F708952FB6B29B2DC00196A091A4
:100140006800B09169008A179B0718F11D968A17FD
:100150009B07F8F4E3DF20916A002A95F1F7E4E6C3
:10016000FF2734E0412C219127FB44F848BA26FBB5
:1001700044F848BA25FB44F848BA24FB44F848BA86
:1001800023FB44F848BAE89444F818BA3A9559F76A
:1001900053942FBE18955524882799279EDFF9CFB1
:1001A0000F9368D019E00BD00AD009D08894B09989
:1001B00008941A9511F03794F7CF0F9108950FE432
:1001C0000A95F1F70895F8944CD054D03014E9F31F
:1001D00004E0E4E6FF27E4DF31920A95E1F7E4E684
:1001E000FF270191083551F0033551F00C3479F0B7
:1001F000033499F00635A9F00235B9F078940895E2
:1002000013E001910335F9F61A95D9F7F7CF14D019
:100210007092680080926900D6CF0ED070926A000A
:10022000D2CF0AD070926B00CECF13E0019102358D
:1002300051F61A95D9F739D07724882401910F7097
:1002400012E309D001910F7015E005D000810F7005
:10025000700E801C0895000F700E801C1A95E1F737
:10026000089500271127B09BFCCF1A95E1F70A9556
:10027000D1F70895312C00271127B09B05C01A959E
:10028000E1F70A95D1F733240895C2011E00E199E0
:10029000FECF1EBBE09A0DB30895E199FECF0CBAD4
:1002A0001EBB0DBBE29AE19A0895EAE8F2E015E080
:1002B0000591F3DF13951930D9F7089500E806BDCD
:1002C00006BC0FE90DBF00241124139466245524A5
:1002D000BC9AC09A02EC11E0009368001093690088
:1002E0000EE100936A0001E005BF00E40BBF01E0EE
:1002F00007B901E006B908E004BB4EE77894B09B6B
:0403000062DFFDCFEC
:00000001FF
